:020000040000FA
:020000000C28CA
:08000800B7000308B800380836
:100010008300B70E370E090083120313B90183164C
:100020000313FF30870083160313193099008316DA
:10003000031318151812831203139817831203134E
:100040001816831203138C1E2328831203132030E7
:1000500039078400831203131A08800083120313E4
:10006000B90A14303902031D1E28B90184011E2863
:1000700083120313FF30B400B5000530B600B40B93
:100080003F28FF30B400B50B3F28FF30B500B60B5A
:080090003F280530B60008000E
:02400E003A3D39
:00000001FF
