:020000040000FA
:020000000D28C9
:08000800A0000308A1000B1188
:1000100021088300A00E200E0900A201A30183166F
:100020000313811383160313FF3086008312031317
:10003000061C1D20861C3C2018288312031322084E
:10004000831203178C0083120313220883120317F1
:100050008D00831603178C130C158B1355308D00F0
:10006000AA308D008C148B178C1834280C11831235
:100070000313A20F1D28080083120313A301831288
:1000800003130008831203178C0083120313230841
:10009000831203178D00831603178C130C158B1313
:1000A00055308D00AA308D008C148B178C18562873
:0C00B0000C1183120313A30F3F2808005B
:02400E003A3F37
:00000001FF
