:020000040000FA
:020000000C28CA
:08000800A4000308A50025086F
:100010008300A40E240E090083120313A301A6017A
:1000200083160313FF308700831203138316031311
:1000300094171413831603130930930083120313C8
:100040002830940083120313071C24285020A0306A
:1000500055205A2083120313230855205A2092203A
:1000600055205A207B2083120313A30AA60A80205E
:10007000831203130D302602031924282628831621
:100080000313111A41289119412811194128911877
:100090004128111841288316031314194128080018
:1000A0003F2083160313111408003F20831203130B
:1000B000930008003F2083160313111B5D280800DE
:1000C0003F2083160313911408003F208316031367
:1000D00091159119692883120313130808003F2012
:1000E000831603139112111608003F208316031381
:1000F0009116111608003F208316031311150800EE
:10010000FF30A000A1000530A200A00B8528FF3021
:10011000A000A10B8528FF30A100A20B8528053087
:10012000A200080083120313260882074D346F349F
:10013000683461346D34653464342D34463461344C
:06014000723465347334D3
:02400E003A3D39
:00000001FF
