:020000040000FA
:020000000D28C9
:08000800A5000308A60026086C
:100010008300A50E250E8B10090083120313A30184
:100020003030A40083160313FF30870083120313BC
:1000300083160313941714138316031309309300C4
:10004000831203132830940083120313071C2628FD
:100050004E20A0305320582083120313230853202E
:100060005820831203132408532058207920831228
:100070000313A30FA40F7E20282883160313111A3D
:100080003F2891193F2811193F2891183F2811182E
:100090003F288316031314193F2808003D208316B8
:1000A0000313111408003D2083120313930008006A
:1000B0003D2083160313111B5B2808003D20831687
:1000C0000313911408003D20831603139115911911
:1000D000672883120313130808003D2083160313B7
:1000E0009112111608003D20831603139116111664
:1000F00008003D208316031311150800FF30A000EF
:10010000A1000530A200A00B8328FF30A000A10BA6
:100110008328FF30A100A20B83280530A20008002D
:0E020000EF266134E5362D32612365398039F1
:02400E003A3D39
:00000001FF
