:020000040000FA
:020000000D28C9
:08000800FE000308FF007F0861
:100010008300FE0E7E0E8B10090083120313A301D2
:10002000A401831603131F3085008601FF3087006B
:100030008312031385018316031394171413831675
:1000400003130930930083120313283094007A209D
:100050004A20A0304F2054208312031323084F203E
:100060005420A4084F205420752083120313A30AA0
:10007000A40A7A20272883160313111A3D28911900
:100080003D2811193D2891183D2811183D281419B3
:100090003D2808003B2083160313111408003B2061
:1000A00083120313930008003B2083160313111BD4
:1000B000572808003B2083160313911408003B20A7
:1000C00083160313911591196328831203131308E0
:1000D00008003B20831603139112111608003B20E1
:1000E000831603139116111608003B208316031381
:1000F00011150800FF30A000A1000530A200A00BE0
:100100007F28FF30A000A10B7F28FF30A100A20BA9
:080110007F280530A200080061
:02400E003A3D39
:00000001FF
