:020000040000FA
:020000000D28C9
:08000800FE000308FF007F0861
:100010008300FE0E7E0E8B1009008316031306303C
:100020009F008316031381131F308500FF30860065
:100030008701831203138701051C352085183B2097
:10004000061C41201C28FF30A000A1000430A200A3
:10005000A00B2828FF30A000A10B2828FF30A1000A
:10006000A20B28280430A2000800831203130130D9
:1000700087062320080083120313023087062320FB
:0E0080000800831203130430870623200800B3
:02400E003A3D39
:00000001FF
