:020000040000FA
:020000000C28CA
:08000800A5000308A60026086C
:100010008300A50E250E090083120313A701831682
:100020000313FF30870083160313193099008316DA
:10003000031318151812831203139817831603134A
:1000400098165020831203139900831603139818EF
:100050002728831203130C1E2B280C128312031360
:10006000A70A0B30270283120313031D1E283C200E
:1000700083120313A7011E2883120313FF30A0006D
:10008000A1000530A200A00B4328FF30A000A10B67
:100090004328FF30A100A20B43280530A20008002E
:1000A0008312031327088312031382075034493441
:1000B00043343134363446343834373437340D34FD
:0200C0000A3400
:02400E003A3D39
:00000001FF
